{
  "contractName": "Mixer",
  "abi": [
    {
      "constant": true,
      "inputs": [],
      "name": "AMOUNT",
      "outputs": [
        {
          "name": "",
          "type": "uint256"
        }
      ],
      "payable": false,
      "stateMutability": "view",
      "type": "function"
    },
    {
      "constant": true,
      "inputs": [
        {
          "name": "",
          "type": "uint256"
        }
      ],
      "name": "nullifiers",
      "outputs": [
        {
          "name": "",
          "type": "bool"
        }
      ],
      "payable": false,
      "stateMutability": "view",
      "type": "function"
    },
    {
      "inputs": [
        {
          "name": "in_vk",
          "type": "uint256[14]"
        },
        {
          "name": "in_gammaABC",
          "type": "uint256[]"
        }
      ],
      "payable": false,
      "stateMutability": "nonpayable",
      "type": "constructor"
    },
    {
      "anonymous": false,
      "inputs": [
        {
          "indexed": true,
          "name": "_leaf",
          "type": "uint256"
        },
        {
          "indexed": false,
          "name": "_leafIndex",
          "type": "uint256"
        }
      ],
      "name": "LeafAdded",
      "type": "event"
    },
    {
      "anonymous": false,
      "inputs": [
        {
          "indexed": false,
          "name": "_nullifier",
          "type": "uint256"
        }
      ],
      "name": "DepositWithdrawn",
      "type": "event"
    },
    {
      "constant": true,
      "inputs": [],
      "name": "getRoot",
      "outputs": [
        {
          "name": "",
          "type": "uint256"
        }
      ],
      "payable": false,
      "stateMutability": "view",
      "type": "function"
    },
    {
      "constant": false,
      "inputs": [
        {
          "name": "leaf",
          "type": "uint256"
        }
      ],
      "name": "commit",
      "outputs": [],
      "payable": true,
      "stateMutability": "payable",
      "type": "function"
    },
    {
      "constant": true,
      "inputs": [
        {
          "name": "nullifier_secret",
          "type": "uint256"
        },
        {
          "name": "wallet_address",
          "type": "address"
        }
      ],
      "name": "makeLeafHash",
      "outputs": [
        {
          "name": "",
          "type": "uint256"
        }
      ],
      "payable": false,
      "stateMutability": "pure",
      "type": "function"
    },
    {
      "constant": true,
      "inputs": [
        {
          "name": "nullifier_secret",
          "type": "uint256"
        }
      ],
      "name": "makeNullifierHash",
      "outputs": [
        {
          "name": "",
          "type": "uint256"
        }
      ],
      "payable": false,
      "stateMutability": "pure",
      "type": "function"
    },
    {
      "constant": true,
      "inputs": [
        {
          "name": "leafIndex",
          "type": "uint256"
        }
      ],
      "name": "getMerklePath",
      "outputs": [
        {
          "name": "out_path",
          "type": "uint256[15]"
        }
      ],
      "payable": false,
      "stateMutability": "view",
      "type": "function"
    },
    {
      "constant": true,
      "inputs": [
        {
          "name": "nullifier",
          "type": "uint256"
        }
      ],
      "name": "isSpent",
      "outputs": [
        {
          "name": "",
          "type": "bool"
        }
      ],
      "payable": false,
      "stateMutability": "view",
      "type": "function"
    },
    {
      "constant": true,
      "inputs": [
        {
          "name": "in_root",
          "type": "uint256"
        },
        {
          "name": "in_wallet_address",
          "type": "address"
        },
        {
          "name": "in_nullifier",
          "type": "uint256"
        },
        {
          "name": "proof",
          "type": "uint256[8]"
        }
      ],
      "name": "verifyProof",
      "outputs": [
        {
          "name": "",
          "type": "bool"
        }
      ],
      "payable": false,
      "stateMutability": "view",
      "type": "function"
    },
    {
      "constant": false,
      "inputs": [
        {
          "name": "in_withdraw_address",
          "type": "address"
        },
        {
          "name": "in_nullifier",
          "type": "uint256"
        },
        {
          "name": "proof",
          "type": "uint256[8]"
        }
      ],
      "name": "withdraw",
      "outputs": [],
      "payable": false,
      "stateMutability": "nonpayable",
      "type": "function"
    },
    {
      "constant": true,
      "inputs": [],
      "name": "treeDepth",
      "outputs": [
        {
          "name": "",
          "type": "uint256"
        }
      ],
      "payable": false,
      "stateMutability": "pure",
      "type": "function"
    },
    {
      "constant": true,
      "inputs": [],
      "name": "getNextLeafIndex",
      "outputs": [
        {
          "name": "",
          "type": "uint256"
        }
      ],
      "payable": false,
      "stateMutability": "view",
      "type": "function"
    }
  ],
  "bytecode": "0x60806040523480156200001157600080fd5b50604051620015733803806200157383398101806040526101e08110156200003857600080fd5b810190809190826101c00180516401000000008111156200005857600080fd5b820160208101848111156200006c57600080fd5b81518560208202830111640100000000821117156200008a57600080fd5b50909350620000a3925060009150849050600e620000c2565b508051620000b990600e90602084019062000105565b50505062000162565b82600e8101928215620000f3579160200282015b82811115620000f3578251825591602001919060010190620000d6565b506200010192915062000142565b5090565b828054828255906000526020600020908101928215620000f35791602002820182811115620000f3578251825591602001919060010190620000d6565b6200015f91905b8082111562000101576000815560010162000149565b90565b61140180620001726000396000f3fe6080604052600436106100a75760003560e01c80636e4d6517116100645780636e4d6517146101e957806374b9886e1461024c578063c938f018146102c5578063d1789176146102ef578063d21e82ab14610304578063f4f98ad51461032e576100a7565b806303c5c65e146100ac57806316a56c41146100f757806322a6fef11461010c57806350e9b925146101815780635a129efe146101965780635ca1e165146101d4575b600080fd5b3480156100b857600080fd5b506100e5600480360360408110156100cf57600080fd5b50803590602001356001600160a01b031661034b565b60408051918252519081900360200190f35b34801561010357600080fd5b506100e5610417565b34801561011857600080fd5b5061017f600480360361014081101561013057600080fd5b6040805161010081810183526001600160a01b03853516946020810135948101939092610140840192909184019060089083908390808284376000920191909152509194506104269350505050565b005b34801561018d57600080fd5b506100e56105e6565b3480156101a257600080fd5b506101c0600480360360208110156101b957600080fd5b50356105f2565b604080519115158252519081900360200190f35b3480156101e057600080fd5b506100e5610607565b3480156101f557600080fd5b506102136004803603602081101561020c57600080fd5b5035610613565b60405180826101e080838360005b83811015610239578181015183820152602001610221565b5050505090500191505060405180910390f35b34801561025857600080fd5b506101c0600480360361016081101561027057600080fd5b6040805161010081810183528435946001600160a01b03602082013516949381013593810192909161016083019190606084019060089083908390808284376000920191909152509194506106329350505050565b3480156102d157600080fd5b506100e5600480360360208110156102e857600080fd5b5035610742565b3480156102fb57600080fd5b506100e56107ae565b34801561031057600080fd5b506101c06004803603602081101561032757600080fd5b50356107ba565b61017f6004803603602081101561034457600080fd5b50356107cf565b600080600284846001600160a01b031660405160200180838152602001828152602001925050506040516020818303038152906040526040518082805190602001908083835b602083106103b05780518252601f199092019160209182019101610391565b51815160209384036101000a60001901801990921691161790526040519190930194509192505080830381855afa1580156103ef573d6000803e3d6000fd5b5050506040513d602081101561040457600080fd5b50516001600160fc1b0316949350505050565b60006104216108b8565b905090565b60005a6000848152600f602052604090205490915060ff16156104935760408051600160e51b62461bcd02815260206004820152600e60248201527f4e756c6c69666965722075736564000000000000000000000000000000000000604482015290519081900360640190fd5b6104a661049e610607565b858585610632565b6104fa5760408051600160e51b62461bcd02815260206004820152601960248201527f50726f6f6620766572696669636174696f6e206661696c656400000000000000604482015290519081900360640190fd5b6000838152600f6020908152604091829020805460ff19166001179055815185815291517f0788d719d36264cd922e6e2bb8f52f65b13571d1ea3ddaf8d27b1acfdd18c3d09281900390910190a160005a820361e1640190503a810266b1a2bc2ec5000081111561056f575066b1a2bc2ec500005b6040516001600160a01b03871690670de0b6b3a764000083900380156108fc02916000818181858888f193505050501580156105af573d6000803e3d6000fd5b50604051339082156108fc029083906000818181858888f193505050501580156105dd573d6000803e3d6000fd5b50505050505050565b600061042160106108bd565b6000908152600f602052604090205460ff1690565b600061042160106108c1565b61061b61133d565b61062c60108363ffffffff6108ca16565b92915050565b6040805160038082526080820190925260009160609190602082018380388339019050509050858160008151811061066657fe5b602002602001018181525050846001600160a01b03168160018151811061068957fe5b60200260200101818152505083816002815181106106a357fe5b6020908102919091010152604080516101c081019182905261073891600090600e9082845b8154815260200190600101908083116106c8575050505050600e80548060200260200160405190810160405280929190818152602001828054801561072c57602002820191906000526020600020905b815481526020019060010190808311610718575b5050505050858461093f565b9695505050505050565b6040805160028082526060808301845260009390929190602083019080388339019050509050828160008151811061077657fe5b602002602001018181525050828160018151811061079057fe5b6020026020010181815250506107a7816000610be2565b9392505050565b670de0b6b3a764000081565b600f6020526000908152604090205460ff1681565b600081116108165760408051600160e51b62461bcd0281526020600482015260096024820152600160b91b68373ab636103632b0b302604482015290519081900360640190fd5b670de0b6b3a764000034146108665760408051600160e51b62461bcd02815260206004820152600b6024820152600160a81b6a77726f6e672076616c756502604482015290519081900360640190fd5b600061087960108363ffffffff610c1016565b915050817f039fe56c88c7423b368b110113d8483a6b9ee8fc3d8155d1ea6266f8ed3ef195826040518082815260200191505060405180910390a25050565b600f90565b5490565b62078001015490565b6108d261133d565b60005b600f811015610938576002830661090a576108f4848285600101610d05565b8282600f811061090057fe5b602002015261092a565b610918848260018603610d05565b8282600f811061092457fe5b60200201525b6002830492506001016108d5565b5092915050565b600081516001600286518161095057fe5b04031461095c57600080fd5b61096461135c565b61096c61137a565b600080600290508760008151811061098057fe5b60200260200101518360006004811061099557fe5b60200201528751889060019081106109a957fe5b6020026020010151836001600481106109be57fe5b602002015260005b8651811015610a8c57885160018301928a9181106109e057fe5b6020026020010151856000600381106109f557fe5b6020020152885160018301928a918110610a0b57fe5b602002602001015185600160038110610a2057fe5b60200201528651879082908110610a3357fe5b602002602001015185600260038110610a4857fe5b602002015260606040850160808760076107d05a03fa925082610a6a57600080fd5b60608460c08660066107d05a03fa925082610a8457600080fd5b6001016109c6565b50610a95611398565b6040805161030081018252895181526020808b01519082015289820151918101919091526060808a0151908201526080808a01519082015260a0808a0151908201528a5160c082015260e08101610af38c60015b6020020151610d3b565b815260408c81015160208301526060808e0151918301919091526080808e01519183019190915260a0808e01519183019190915286519082015260c001610b3b866001610ae9565b815260c08c810151602083015260e08d015160408301526101008d015160608301526101208d015160808301528a81015160a083015201610b7d8a6007610ae9565b81526101408c015160208201526101608c015160408201526101808c015160608201526101a08c01516080909101529050610bb66113b7565b6020816103008460086107d05a03fa935083610bd157600080fd5b5115159a9950505050505050505050565b60408051600160e01b636d696d6302815290519081900360040190206000906107a79084908490605b610d65565b60008060008311610c6b5760408051600160e51b62461bcd02815260206004820152601060248201527f4d543a204c656166206973206e756c6c00000000000000000000000000000000604482015290519081900360640190fd5b610c7361133d565b610c7c81610de9565b845491506180008210610cd95760408051600160e51b62461bcd02815260206004820152601060248201527f4d543a20547265652069732066756c6c00000000000000000000000000000000604482015290519081900360640190fd5b8360018601836180008110610cea57fe5b0155610cf68582611029565b60018301909555509293915050565b6000610d338383866001018660108110610d1b57fe5b6180000201856180008110610d2c57fe5b015461114b565b949350505050565b7f30644e72e131a029b85045b68181585d97816a916871ca8d3c208c16d87cfd4790819006900390565b6000837f30644e72e131a029b85045b68181585d2833e84879b9709143e1f593f0000001825b8751811015610ddd5781610db4898381518110610da457fe5b6020026020010151858989611226565b898381518110610dc057fe5b602002602001015185010181610dd257fe5b069250600101610d8b565b50909695505050505050565b7e54b679342dc72db7dada5f1e059c89cdd0e248dfd48b93fbd819469fdddab281527f15616c4d9255be862e74568bec02555a2ec44aca0c35b6654b492d764dbaa4de60208201527f288005cad3274b9dbabda48cabd68247fd9dbfeaaf44befae372d3aa29a2222f60408201527f0e95e36069b5a4ec39d0d317ae9b3659cb7259fa6977fd4d81fae34d91885e7b60608201527f3005a039bb02066ec8f3bbce1259cfbc68c84bc5adbf353a3338c6ef1495c66660808201527f16d6b88b43188dae6501f224a9fa48d14fc1c67ce846dabfb24a94a6f23aa31260a08201527f269db736b9c3dcb23f263ed57476a620dd607eb4f08c82bc5a40baf11c2e2b9360c08201527f29be46ef2cd66613f7bece37644ec4e5cd57ae30c3c1028312fa3a1d5000521260e08201527f2fb65d8cfc2d7b52e0dd83a719f7ee81cedd92f748bdfebeddcda7ec18e2ab266101008201527f1b3ac839413221cfb6955b7822ef98fa4dfb42b0221044ace6c6272a3956a7b66101208201527f29cc155784315664174105985ee453015a0a8c5d2dd4593a8300463b52fb6ade6101408201527f1c575b8e067a3b91febbe1dda3737835804245e9858c47ae26fff4189a4111f96101608201527f123af492faf15272031d5e6625172effdfdcf365098567bdcba69d4be38a1a526101808201527f257b17ef869450bf306b6cea7449d42b6838fea192f60eefbf5927765d5bf7516101a08201527f2ac5f23fa9f80eb16660ed46597a663beae42cb4e0fe52f1b6eec9439e90b5de6101c090910152565b81546000908180805b600f81101561113957600284066110995786600101816010811061105257fe5b618000020184618000811061106357fe5b01549250611092818560010189600101846010811061107e57fe5b6180000201876001016180008110610d2c57fe5b91506110eb565b6110c481600186038960010184601081106110b057fe5b6180000201600188036180008110610d2c57fe5b92508660010181601081106110d557fe5b61800002018461800081106110e657fe5b015491505b6002840461110a84848985600f811061110057fe5b60200201516112ac565b88600101836001016010811061111c57fe5b618000020182618000811061112d57fe5b01559350600101611032565b50505062078001909301549392505050565b6000816109385761115a611319565b6040805161ffff871660f01b6020808301919091526001600160f01b03871660101b6022830152825180830382018152918301928390528151600293918291908401908083835b602083106111c05780518252601f1990920191602091820191016111a1565b51815160209384036101000a60001901801990921691161790526040519190930194509192505080830381855afa1580156111ff573d6000803e3d6000fd5b5050506040513d602081101561121457600080fd5b50518161121d57fe5b06949350505050565b6000600182101561123657600080fd5b604051602081016040528381527f30644e72e131a029b85045b68181585d2833e84879b9709143e1f593f0000001600080855b801561129a5760208520855283898587518d0808925083838409915083838586858609850909995060001901611269565b5082888a089998505050505050505050565b604080516002808252606080830184526000939092919060208301908038833901905050905084816000815181106112e057fe5b60200260200101818152505083816001815181106112fa57fe5b6020026020010181815250506113108184610be2565b95945050505050565b7f30644e72e131a029b85045b68181585d2833e84879b9709143e1f593f000000190565b604051806101e00160405280600f906020820280388339509192915050565b60405180606001604052806003906020820280388339509192915050565b60405180608001604052806004906020820280388339509192915050565b6040518061030001604052806018906020820280388339509192915050565b6040518060200160405280600190602082028038833950919291505056fea165627a7a723058208fd1da40c6b2e32fbc8e35a2fc0398ba801fa0a0121706e690c5be6d32fa2ab40029",
  "source": "pragma solidity ^0.5.0;\n\nimport \"./lib/Verifier.sol\";\nimport \"./lib/MerkleTree.sol\";\nimport \"./lib/MiMC.sol\";\n\ncontract Mixer\n{\n    using MerkleTree for MerkleTree.Data;\n\n    uint constant public AMOUNT = 1 ether;\n\n    uint256[14] vk;\n    uint256[] gammaABC;\n\n    mapping (uint256 => bool) public nullifiers;\n\n    MerkleTree.Data internal tree;\n\n    event LeafAdded(uint256 indexed _leaf, uint256 _leafIndex);\n    event DepositWithdrawn(uint256 _nullifier);\n\n    constructor(uint256[14] memory in_vk, uint256[] memory in_gammaABC)\n        public\n    {\n        vk = in_vk;\n        gammaABC = in_gammaABC;\n    }\n\n    function getRoot()\n        public\n        view\n        returns (uint256)\n    {\n        return tree.getRoot();\n    }\n\n    /**\n    * Insert a funded commitment to the Merkle tree\n    */\n    function commit(uint256 leaf)\n        public\n        payable\n    {\n        require(leaf > 0, \"null leaf\");\n        require(msg.value == AMOUNT, \"wrong value\");\n        (, uint256 leafIndex) = tree.insert(leaf);\n        emit LeafAdded(leaf, leafIndex);\n    }\n\n    // should not be used in production otherwise nullifier_secret would be shared with node!\n    function makeLeafHash(uint256 nullifier_secret, address wallet_address)\n        external\n        pure\n        returns (uint256)\n    {\n        // return MiMC.Hash([nullifier_secret, uint256(wallet_address)], 0);\n        bytes32 digest = sha256(abi.encodePacked(nullifier_secret, uint256(wallet_address)));\n        uint256 mask = uint256(-1) >> 4; // clear the first 4 bits to make sure we stay within the prime field\n        return uint256(digest) & mask;\n    }\n\n    // should not be used in production otherwise nullifier_secret would be shared with node!\n    function makeNullifierHash(uint256 nullifier_secret)\n        external\n        pure\n        returns (uint256)\n    {\n        uint256[] memory vals = new uint256[](2);\n        vals[0] = nullifier_secret;\n        vals[1] = nullifier_secret;\n        return MiMC.Hash(vals, 0);\n    }\n\n    function getMerklePath(uint256 leafIndex)\n        external\n        view\n        returns (uint256[15] memory out_path)\n    {\n        out_path = tree.getMerkleProof(leafIndex);\n    }\n\n    function isSpent(uint256 nullifier)\n        public\n        view\n        returns (bool)\n    {\n        return nullifiers[nullifier];\n    }\n\n    function verifyProof(uint256 in_root, address in_wallet_address, uint256 in_nullifier, uint256[8] memory proof)\n        public\n        view\n        returns (bool)\n    {\n        uint256[] memory snark_input = new uint256[](3);\n        snark_input[0] = in_root;\n        snark_input[1] = uint256(in_wallet_address);\n        snark_input[2] = in_nullifier;\n\n        return Verifier.verify(vk, gammaABC, proof, snark_input);\n    }\n\n    function withdraw(\n        address payable in_withdraw_address,\n        uint256 in_nullifier,\n        uint256[8] memory proof\n    )\n        public\n    {\n        uint startGas = gasleft();\n        require(!nullifiers[in_nullifier], \"Nullifier used\");\n        require(verifyProof(getRoot(), in_withdraw_address, in_nullifier, proof), \"Proof verification failed\");\n\n        nullifiers[in_nullifier] = true;\n        emit DepositWithdrawn(in_nullifier);\n\n        uint gasUsed = startGas - gasleft() + 57700;\n        uint relayerRefund = gasUsed * tx.gasprice;\n        if(relayerRefund > AMOUNT/20) relayerRefund = AMOUNT/20;\n        in_withdraw_address.transfer(AMOUNT - relayerRefund); // leaf withdrawal\n        msg.sender.transfer(relayerRefund); // relayer refund\n    }\n\n    function treeDepth() external pure returns (uint256) {\n        return MerkleTree.treeDepth();\n    }\n\n    function getNextLeafIndex() external view returns (uint256) {\n        return tree.getNextLeafIndex();\n    }\n}\n",
  "sourcePath": "/Users/ovdbigge/argent/hopper5/solidity/contracts/Mixer.sol",
  "compiler": {
    "name": "solc",
    "version": "0.5.8+commit.23d335f2.Emscripten.clang"
  },
  "schemaVersion": "3.0.11",
  "updatedAt": "2019-08-05T15:39:03.483Z",
  "devdoc": {
    "methods": {}
  },
  "userdoc": {
    "methods": {
      "commit(uint256)": {
        "notice": "Insert a funded commitment to the Merkle tree"
      }
    }
  }
}