{
  "contractName": "Mixer",
  "abi": [
    {
      "constant": true,
      "inputs": [
        {
          "name": "",
          "type": "address"
        },
        {
          "name": "",
          "type": "uint256"
        }
      ],
      "name": "pendingDeposits",
      "outputs": [
        {
          "name": "",
          "type": "uint256"
        }
      ],
      "payable": false,
      "stateMutability": "view",
      "type": "function",
      "signature": "0x8f9ae0b9"
    },
    {
      "constant": true,
      "inputs": [],
      "name": "AMOUNT",
      "outputs": [
        {
          "name": "",
          "type": "uint256"
        }
      ],
      "payable": false,
      "stateMutability": "view",
      "type": "function",
      "signature": "0xd1789176"
    },
    {
      "constant": true,
      "inputs": [
        {
          "name": "",
          "type": "uint256"
        }
      ],
      "name": "nullifiers",
      "outputs": [
        {
          "name": "",
          "type": "bool"
        }
      ],
      "payable": false,
      "stateMutability": "view",
      "type": "function",
      "signature": "0xd21e82ab"
    },
    {
      "inputs": [
        {
          "name": "in_vk",
          "type": "uint256[14]"
        },
        {
          "name": "in_gammaABC",
          "type": "uint256[]"
        }
      ],
      "payable": false,
      "stateMutability": "nonpayable",
      "type": "constructor",
      "signature": "constructor"
    },
    {
      "payable": true,
      "stateMutability": "payable",
      "type": "fallback"
    },
    {
      "anonymous": false,
      "inputs": [
        {
          "indexed": true,
          "name": "_fundingWallet",
          "type": "address"
        },
        {
          "indexed": false,
          "name": "_leaf",
          "type": "uint256"
        }
      ],
      "name": "CommitmentAdded",
      "type": "event",
      "signature": "0x765b674bff93b21bfb5ffcffac5d739861ed3aea348696049536c96d10e7b37e"
    },
    {
      "anonymous": false,
      "inputs": [
        {
          "indexed": false,
          "name": "_leaf",
          "type": "uint256"
        },
        {
          "indexed": false,
          "name": "_leafIndex",
          "type": "uint256"
        }
      ],
      "name": "LeafAdded",
      "type": "event",
      "signature": "0x039fe56c88c7423b368b110113d8483a6b9ee8fc3d8155d1ea6266f8ed3ef195"
    },
    {
      "anonymous": false,
      "inputs": [
        {
          "indexed": false,
          "name": "_nullifier",
          "type": "uint256"
        }
      ],
      "name": "DepositWithdrawn",
      "type": "event",
      "signature": "0x0788d719d36264cd922e6e2bb8f52f65b13571d1ea3ddaf8d27b1acfdd18c3d0"
    },
    {
      "constant": true,
      "inputs": [],
      "name": "getRoot",
      "outputs": [
        {
          "name": "",
          "type": "uint256"
        }
      ],
      "payable": false,
      "stateMutability": "view",
      "type": "function",
      "signature": "0x5ca1e165"
    },
    {
      "constant": false,
      "inputs": [
        {
          "name": "leaf",
          "type": "uint256"
        },
        {
          "name": "fundingWallet",
          "type": "address"
        }
      ],
      "name": "commit",
      "outputs": [],
      "payable": true,
      "stateMutability": "payable",
      "type": "function",
      "signature": "0x0d64b071"
    },
    {
      "constant": true,
      "inputs": [
        {
          "name": "nullifier_secret",
          "type": "uint256"
        },
        {
          "name": "wallet_address",
          "type": "address"
        }
      ],
      "name": "makeLeafHash",
      "outputs": [
        {
          "name": "",
          "type": "uint256"
        }
      ],
      "payable": false,
      "stateMutability": "pure",
      "type": "function",
      "signature": "0x03c5c65e"
    },
    {
      "constant": true,
      "inputs": [
        {
          "name": "nullifier_secret",
          "type": "uint256"
        }
      ],
      "name": "makeNullifierHash",
      "outputs": [
        {
          "name": "",
          "type": "uint256"
        }
      ],
      "payable": false,
      "stateMutability": "pure",
      "type": "function",
      "signature": "0xc938f018"
    },
    {
      "constant": true,
      "inputs": [
        {
          "name": "leafIndex",
          "type": "uint256"
        }
      ],
      "name": "getMerklePath",
      "outputs": [
        {
          "name": "out_path",
          "type": "uint256[15]"
        }
      ],
      "payable": false,
      "stateMutability": "view",
      "type": "function",
      "signature": "0x6e4d6517"
    },
    {
      "constant": true,
      "inputs": [
        {
          "name": "nullifier",
          "type": "uint256"
        }
      ],
      "name": "isSpent",
      "outputs": [
        {
          "name": "",
          "type": "bool"
        }
      ],
      "payable": false,
      "stateMutability": "view",
      "type": "function",
      "signature": "0x5a129efe"
    },
    {
      "constant": true,
      "inputs": [
        {
          "name": "in_root",
          "type": "uint256"
        },
        {
          "name": "in_wallet_address",
          "type": "address"
        },
        {
          "name": "in_nullifier",
          "type": "uint256"
        },
        {
          "name": "proof",
          "type": "uint256[8]"
        }
      ],
      "name": "verifyProof",
      "outputs": [
        {
          "name": "",
          "type": "bool"
        }
      ],
      "payable": false,
      "stateMutability": "view",
      "type": "function",
      "signature": "0x74b9886e"
    },
    {
      "constant": false,
      "inputs": [
        {
          "name": "in_withdraw_address",
          "type": "address"
        },
        {
          "name": "in_nullifier",
          "type": "uint256"
        },
        {
          "name": "proof",
          "type": "uint256[8]"
        }
      ],
      "name": "withdraw",
      "outputs": [],
      "payable": false,
      "stateMutability": "nonpayable",
      "type": "function",
      "signature": "0x22a6fef1"
    },
    {
      "constant": true,
      "inputs": [],
      "name": "treeDepth",
      "outputs": [
        {
          "name": "",
          "type": "uint256"
        }
      ],
      "payable": false,
      "stateMutability": "pure",
      "type": "function",
      "signature": "0x16a56c41"
    },
    {
      "constant": true,
      "inputs": [],
      "name": "getNextLeafIndex",
      "outputs": [
        {
          "name": "",
          "type": "uint256"
        }
      ],
      "payable": false,
      "stateMutability": "view",
      "type": "function",
      "signature": "0x50e9b925"
    }
  ],
  "bytecode": "0x60806040523480156200001157600080fd5b506040516200175d3803806200175d83398101806040526101e08110156200003857600080fd5b810190809190826101c00180516401000000008111156200005857600080fd5b820160208101848111156200006c57600080fd5b81518560208202830111640100000000821117156200008a57600080fd5b50909350620000a3925060009150849050600e620000c2565b508051620000b990600e90602084019062000105565b50505062000162565b82600e8101928215620000f3579160200282015b82811115620000f3578251825591602001919060010190620000d6565b506200010192915062000142565b5090565b828054828255906000526020600020908101928215620000f35791602002820182811115620000f3578251825591602001919060010190620000d6565b6200015f91905b8082111562000101576000815560010162000149565b90565b6115eb80620001726000396000f3fe6080604052600436106100c45763ffffffff7c010000000000000000000000000000000000000000000000000000000060003504166303c5c65e81146100ce5780630d64b0711461011957806316a56c411461014557806322a6fef11461015a57806350e9b925146101cd5780635a129efe146101e25780635ca1e165146102205780636e4d65171461023557806374b9886e146102985780638f9ae0b914610311578063c938f0181461034a578063d178917614610374578063d21e82ab14610389575b6100cc6103b3565b005b3480156100da57600080fd5b50610107600480360360408110156100f157600080fd5b5080359060200135600160a060020a0316610503565b60408051918252519081900360200190f35b6100cc6004803603604081101561012f57600080fd5b5080359060200135600160a060020a03166105e8565b34801561015157600080fd5b506101076106b6565b34801561016657600080fd5b506100cc600480360361014081101561017e57600080fd5b604080516101008181018352600160a060020a03853516946020810135948101939092610140840192909184019060089083908390808284376000920191909152509194506106c69350505050565b3480156101d957600080fd5b50610107610888565b3480156101ee57600080fd5b5061020c6004803603602081101561020557600080fd5b5035610894565b604080519115158252519081900360200190f35b34801561022c57600080fd5b506101076108a9565b34801561024157600080fd5b5061025f6004803603602081101561025857600080fd5b50356108b5565b60405180826101e080838360005b8381101561028557818101518382015260200161026d565b5050505090500191505060405180910390f35b3480156102a457600080fd5b5061020c60048036036101608110156102bc57600080fd5b604080516101008181018352843594600160a060020a03602082013516949381013593810192909161016083019190606084019060089083908390808284376000920191909152509194506108d49350505050565b34801561031d57600080fd5b506101076004803603604081101561033457600080fd5b50600160a060020a0381351690602001356109e8565b34801561035657600080fd5b506101076004803603602081101561036d57600080fd5b5035610a18565b34801561038057600080fd5b50610107610a85565b34801561039557600080fd5b5061020c600480360360208110156103ac57600080fd5b5035610a91565b34670de0b6b3a764000014610412576040805160e560020a62461bcd02815260206004820152600b60248201527f77726f6e672076616c7565000000000000000000000000000000000000000000604482015290519081900360640190fd5b336000908152601060205260408120805490911061047a576040805160e560020a62461bcd02815260206004820152601d60248201527f636f6d6d69746d656e74206d7573742062652073656e74206669727374000000604482015290519081900360640190fd5b80546000908290600019810190811061048f57fe5b60009182526020909120015482549091506104ae8360001983016114db565b5060006104c260118363ffffffff610aa616565b604080518581526020810183905281519294507f039fe56c88c7423b368b110113d8483a6b9ee8fc3d8155d1ea6266f8ed3ef19593508290030190a1505050565b60008060028484600160a060020a031660405160200180838152602001828152602001925050506040516020818303038152906040526040518082805190602001908083835b602083106105685780518252601f199092019160209182019101610549565b51815160209384036101000a60001901801990921691161790526040519190930194509192505080830381855afa1580156105a7573d6000803e3d6000fd5b5050506040513d60208110156105bc57600080fd5b50517f0fffffffffffffffffffffffffffffffffffffffffffffffffffffffffffffff16949350505050565b60008211610640576040805160e560020a62461bcd02815260206004820152600960248201527f6e756c6c206c6561660000000000000000000000000000000000000000000000604482015290519081900360640190fd5b600160a060020a0381166000818152601060209081526040808320805460018101825590845292829020909201859055815185815291517f765b674bff93b21bfb5ffcffac5d739861ed3aea348696049536c96d10e7b37e9281900390910190a260003411156106b2576106b26103b3565b5050565b60006106c0610b05565b90505b90565b60005a6000848152600f602052604090205490915060ff1615610733576040805160e560020a62461bcd02815260206004820152600e60248201527f4e756c6c69666965722075736564000000000000000000000000000000000000604482015290519081900360640190fd5b61074661073e6108a9565b8585856108d4565b151561079c576040805160e560020a62461bcd02815260206004820152601960248201527f50726f6f6620766572696669636174696f6e206661696c656400000000000000604482015290519081900360640190fd5b6000838152600f6020908152604091829020805460ff19166001179055815185815291517f0788d719d36264cd922e6e2bb8f52f65b13571d1ea3ddaf8d27b1acfdd18c3d09281900390910190a160005a820361e1640190503a810266b1a2bc2ec50000811115610811575066b1a2bc2ec500005b604051600160a060020a03871690670de0b6b3a764000083900380156108fc02916000818181858888f19350505050158015610851573d6000803e3d6000fd5b50604051339082156108fc029083906000818181858888f1935050505015801561087f573d6000803e3d6000fd5b50505050505050565b60006106c06011610b0a565b6000908152600f602052604090205460ff1690565b60006106c06011610b0e565b6108bd611504565b6108ce60118363ffffffff610b1716565b92915050565b60408051600380825260808201909252600091606091906020820183803883390190505090508581600081518110151561090a57fe5b602090810290910101528051600160a060020a038616908290600190811061092e57fe5b60209081029091010152805184908290600290811061094957fe5b6020908102919091010152604080516101c08101918290526109de91600090600e9082845b81548152602001906001019080831161096e575050505050600e8054806020026020016040519081016040528092919081815260200182805480156109d257602002820191906000526020600020905b8154815260200190600101908083116109be575b50505050508584610b8e565b9695505050505050565b601060205281600052604060002081815481101515610a0357fe5b90600052602060002001600091509150505481565b604080516002808252606080830184526000939092919060208301908038833901905050905082816000815181101515610a4e57fe5b602090810290910101528051839082906001908110610a6957fe5b60209081029091010152610a7e816000610e07565b9392505050565b670de0b6b3a764000081565b600f6020526000908152604090205460ff1681565b600080821515610ab557600080fd5b610abd611504565b610ac681610e4b565b84549150617fff821415610ad957600080fd5b8360018601836180008110610aea57fe5b0155610af6858261108b565b60018301909555509293915050565b600f90565b5490565b62078001015490565b610b1f611504565b60005b600f811015610b8757600283061515610b5957610b438482856001016111c1565b8282600f8110610b4f57fe5b6020020152610b79565b610b678482600186036111c1565b8282600f8110610b7357fe5b60200201525b600283049250600101610b22565b5092915050565b60008151600160028651811515610ba157fe5b040314610bad57600080fd5b610bb5611524565b610bbd611543565b8551600090600290889083908110610bd157fe5b60209081029190910101518352875188906001908110610bed57fe5b60209081029091010151836001602002015260005b8651811015610caf57885160018301928a918110610c1c57fe5b60209081029190910101518552885160018301928a918110610c3a57fe5b6020908102909101015185600160200201528651879082908110610c5a57fe5b60209081029091010151856002602002015260606040850160808760076107d05a03fa9250821515610c8b57600080fd5b60608460c08660066107d05a03fa9250821515610ca757600080fd5b600101610c02565b50610cb8611562565b6040805161030081018252895181526020808b01519082015289820151918101919091526060808a0151908201526080808a01519082015260a0808a0151908201528a5160c082015260e08101610d168c60015b60200201516111f2565b81526040808d015160208301526060808e0151918301919091526080808e01519183019190915260a0808e01519183019190915286519082015260c001610d5e866001610d0c565b815260c0808d0151602083015260e08d015160408301526101008d015160608301526101208d015160808301528a81015160a083015201610da08a6007610d0c565b81526101408c015160208201526101608c015160408201526101808c015160608201526101a08c01516080909101529050610dd9611582565b6020816103008460086107d05a03fa9350831515610df657600080fd5b5115159a9950505050505050505050565b604080517f6d696d630000000000000000000000000000000000000000000000000000000081529051908190036004019020600090610a7e9084908490605b61121c565b7e54b679342dc72db7dada5f1e059c89cdd0e248dfd48b93fbd819469fdddab281527f15616c4d9255be862e74568bec02555a2ec44aca0c35b6654b492d764dbaa4de60208201527f288005cad3274b9dbabda48cabd68247fd9dbfeaaf44befae372d3aa29a2222f60408201527f0e95e36069b5a4ec39d0d317ae9b3659cb7259fa6977fd4d81fae34d91885e7b60608201527f3005a039bb02066ec8f3bbce1259cfbc68c84bc5adbf353a3338c6ef1495c66660808201527f16d6b88b43188dae6501f224a9fa48d14fc1c67ce846dabfb24a94a6f23aa31260a08201527f269db736b9c3dcb23f263ed57476a620dd607eb4f08c82bc5a40baf11c2e2b9360c08201527f29be46ef2cd66613f7bece37644ec4e5cd57ae30c3c1028312fa3a1d5000521260e08201527f2fb65d8cfc2d7b52e0dd83a719f7ee81cedd92f748bdfebeddcda7ec18e2ab266101008201527f1b3ac839413221cfb6955b7822ef98fa4dfb42b0221044ace6c6272a3956a7b66101208201527f29cc155784315664174105985ee453015a0a8c5d2dd4593a8300463b52fb6ade6101408201527f1c575b8e067a3b91febbe1dda3737835804245e9858c47ae26fff4189a4111f96101608201527f123af492faf15272031d5e6625172effdfdcf365098567bdcba69d4be38a1a526101808201527f257b17ef869450bf306b6cea7449d42b6838fea192f60eefbf5927765d5bf7516101a08201527f2ac5f23fa9f80eb16660ed46597a663beae42cb4e0fe52f1b6eec9439e90b5de6101c090910152565b81546000908180805b600f8110156111af57600284061515611108576001870181601081106110b657fe5b618000020184618000811015156110c957fe5b01549250611101816001808701908a0182601081106110e457fe5b618000020187600101618000811015156110fa57fe5b01546112aa565b915061115f565b61113681600019860160018a01826010811061112057fe5b618000020160018803618000811015156110fa57fe5b925060018701816010811061114757fe5b6180000201846180008110151561115a57fe5b015491505b6002840461117e84848985600f811061117457fe5b60200201516113c0565b6001808a019084016010811061119057fe5b618000020182618000811015156111a357fe5b01559350600101611094565b50505062078001909301549392505050565b60006111ea83836001870182601081106111d757fe5b618000020185618000811015156110fa57fe5b949350505050565b7f30644e72e131a029b85045b68181585d97816a916871ca8d3c208c16d87cfd4790819006900390565b6000837f30644e72e131a029b85045b68181585d2833e84879b9709143e1f593f0000001825b875181101561129e578161126f898381518110151561125d57fe5b9060200190602002015185898961142e565b898381518110151561127d57fe5b9060200190602002015185010181151561129357fe5b069250600101611242565b50909695505050505050565b6000811515610b87576112bb6114b7565b604080517e0100000000000000000000000000000000000000000000000000000000000061ffff881602602080830191909152620100007dffffffffffffffffffffffffffffffffffffffffffffffffffffffffffff8816026022830152825180830382018152918301928390528151600293918291908401908083835b602083106113585780518252601f199092019160209182019101611339565b51815160209384036101000a60001901801990921691161790526040519190930194509192505080830381855afa158015611397573d6000803e3d6000fd5b5050506040513d60208110156113ac57600080fd5b50518115156113b757fe5b06949350505050565b6040805160028082526060808301845260009390929190602083019080388339019050509050848160008151811015156113f657fe5b60209081029091010152805184908290600190811061141157fe5b602090810290910101526114258184610e07565b95945050505050565b6000600182101561143e57600080fd5b604051602081016040528381527f30644e72e131a029b85045b68181585d2833e84879b9709143e1f593f0000001600080855b60008111156114a55760208520855283898587518d0808925083838409915083838586858609850909995060001901611471565b5082888a089998505050505050505050565b7f30644e72e131a029b85045b68181585d2833e84879b9709143e1f593f000000190565b8154818355818111156114ff576000838152602090206114ff9181019083016115a1565b505050565b6101e060405190810160405280600f906020820280388339509192915050565b6060604051908101604052806003906020820280388339509192915050565b6080604051908101604052806004906020820280388339509192915050565b610300604051908101604052806018906020820280388339509192915050565b6020604051908101604052806001906020820280388339509192915050565b6106c391905b808211156115bb57600081556001016115a7565b509056fea165627a7a723058204f2a38374263fce14b7ad46814cad390067baeff247c4532a66f2d95b0f5c9f10029",
  "source": "pragma solidity ^0.5.0;\n\nimport \"./lib/Verifier.sol\";\nimport \"./lib/MerkleTree.sol\";\nimport \"./lib/MiMC.sol\";\n\ncontract Mixer\n{\n    using MerkleTree for MerkleTree.Data;\n\n    uint constant public AMOUNT = 1 ether;\n\n    uint256[14] vk;\n    uint256[] gammaABC;\n\n    mapping (uint256 => bool) public nullifiers;\n    mapping (address => uint256[]) public pendingDeposits;\n\n    MerkleTree.Data internal tree;\n\n    event CommitmentAdded(address indexed _fundingWallet, uint256 _leaf);\n    event LeafAdded(uint256 _leaf, uint256 _leafIndex);\n    event DepositWithdrawn(uint256 _nullifier);\n\n    constructor(uint256[14] memory in_vk, uint256[] memory in_gammaABC)\n        public\n    {\n        vk = in_vk;\n        gammaABC = in_gammaABC;\n    }\n\n    function getRoot()\n        public\n        view\n        returns (uint256)\n    {\n        return tree.getRoot();\n    }\n\n    /**\n    * Save a commitment (leaf) that needs to be funded later on\n    */\n    function commit(uint256 leaf, address fundingWallet)\n        public\n        payable\n    {\n        require(leaf > 0, \"null leaf\");\n        pendingDeposits[fundingWallet].push(leaf);\n        emit CommitmentAdded(fundingWallet, leaf);\n        if (msg.value > 0) fundCommitment();\n    }\n\n    function fundCommitment() private {\n        require(msg.value == AMOUNT, \"wrong value\");\n        uint256[] storage leaves = pendingDeposits[msg.sender];\n        require(leaves.length > 0, \"commitment must be sent first\");\n        uint256 leaf = leaves[leaves.length - 1];\n        leaves.length--;\n        (, uint256 leafIndex) = tree.insert(leaf);\n        emit LeafAdded(leaf, leafIndex);\n    }\n\n    /*\n    * Used by the funding wallet to fund a previously saved commitment\n    */\n    function () external payable {\n        fundCommitment();\n    }\n\n    // should not be used in production otherwise nullifier_secret would be shared with node!\n    function makeLeafHash(uint256 nullifier_secret, address wallet_address)\n        external\n        pure\n        returns (uint256)\n    {\n        // return MiMC.Hash([nullifier_secret, uint256(wallet_address)], 0);\n        bytes32 digest = sha256(abi.encodePacked(nullifier_secret, uint256(wallet_address)));\n        uint256 mask = uint256(-1) >> 4; // clear the first 4 bits to make sure we stay within the prime field\n        return uint256(digest) & mask;\n    }\n\n    // should not be used in production otherwise nullifier_secret would be shared with node!\n    function makeNullifierHash(uint256 nullifier_secret)\n        external\n        pure\n        returns (uint256)\n    {\n        uint256[] memory vals = new uint256[](2);\n        vals[0] = nullifier_secret;\n        vals[1] = nullifier_secret;\n        return MiMC.Hash(vals, 0);\n    }\n\n    function getMerklePath(uint256 leafIndex)\n        external\n        view\n        returns (uint256[15] memory out_path)\n    {\n        out_path = tree.getMerkleProof(leafIndex);\n    }\n\n    function isSpent(uint256 nullifier)\n        public\n        view\n        returns (bool)\n    {\n        return nullifiers[nullifier];\n    }\n\n    function verifyProof(uint256 in_root, address in_wallet_address, uint256 in_nullifier, uint256[8] memory proof)\n        public\n        view\n        returns (bool)\n    {\n        uint256[] memory snark_input = new uint256[](3);\n        snark_input[0] = in_root;\n        snark_input[1] = uint256(in_wallet_address);\n        snark_input[2] = in_nullifier;\n\n        return Verifier.verify(vk, gammaABC, proof, snark_input);\n    }\n\n    function withdraw(\n        address payable in_withdraw_address,\n        uint256 in_nullifier,\n        uint256[8] memory proof\n    )\n        public\n    {\n        uint startGas = gasleft();\n        require(!nullifiers[in_nullifier], \"Nullifier used\");\n        require(verifyProof(getRoot(), in_withdraw_address, in_nullifier, proof), \"Proof verification failed\");\n\n        nullifiers[in_nullifier] = true;\n        emit DepositWithdrawn(in_nullifier);\n\n        uint gasUsed = startGas - gasleft() + 57700;\n        uint relayerRefund = gasUsed * tx.gasprice;\n        if(relayerRefund > AMOUNT/20) relayerRefund = AMOUNT/20;\n        in_withdraw_address.transfer(AMOUNT - relayerRefund); // leaf withdrawal\n        msg.sender.transfer(relayerRefund); // relayer refund\n    }\n\n    function treeDepth() external pure returns (uint256) {\n        return MerkleTree.treeDepth();\n    }\n\n    function getNextLeafIndex() external view returns (uint256) {\n        return tree.getNextLeafIndex();\n    }\n}\n",
  "sourcePath": "/Users/ovdbigge/argent/hopper3/solidity/contracts/Mixer.sol",
  "compiler": {
    "name": "solc",
    "version": "0.5.0+commit.1d4f565a.Emscripten.clang"
  },
  "schemaVersion": "3.0.1",
  "updatedAt": "2019-06-17T13:54:21.297Z",
  "devdoc": {
    "methods": {}
  },
  "userdoc": {
    "methods": {
      "commit(uint256,address)": {
        "notice": "Save a commitment (leaf) that needs to be funded later on"
      }
    }
  }
}