{
  "contractName": "Mixer",
  "abi": [
    {
      "constant": true,
      "inputs": [],
      "name": "AMOUNT",
      "outputs": [
        {
          "name": "",
          "type": "uint256"
        }
      ],
      "payable": false,
      "stateMutability": "view",
      "type": "function",
      "signature": "0xd1789176"
    },
    {
      "constant": true,
      "inputs": [
        {
          "name": "",
          "type": "uint256"
        }
      ],
      "name": "nullifiers",
      "outputs": [
        {
          "name": "",
          "type": "bool"
        }
      ],
      "payable": false,
      "stateMutability": "view",
      "type": "function",
      "signature": "0xd21e82ab"
    },
    {
      "constant": true,
      "inputs": [
        {
          "name": "",
          "type": "address"
        }
      ],
      "name": "pendingDeposits",
      "outputs": [
        {
          "name": "",
          "type": "uint256"
        }
      ],
      "payable": false,
      "stateMutability": "view",
      "type": "function",
      "signature": "0xeb3349b9"
    },
    {
      "inputs": [
        {
          "name": "in_vk",
          "type": "uint256[14]"
        },
        {
          "name": "in_gammaABC",
          "type": "uint256[]"
        }
      ],
      "payable": false,
      "stateMutability": "nonpayable",
      "type": "constructor",
      "signature": "constructor"
    },
    {
      "payable": true,
      "stateMutability": "payable",
      "type": "fallback"
    },
    {
      "anonymous": false,
      "inputs": [
        {
          "indexed": true,
          "name": "_fundingWallet",
          "type": "address"
        },
        {
          "indexed": false,
          "name": "_leaf",
          "type": "uint256"
        }
      ],
      "name": "CommitmentAdded",
      "type": "event",
      "signature": "0x765b674bff93b21bfb5ffcffac5d739861ed3aea348696049536c96d10e7b37e"
    },
    {
      "anonymous": false,
      "inputs": [
        {
          "indexed": false,
          "name": "_leaf",
          "type": "uint256"
        },
        {
          "indexed": false,
          "name": "_leafIndex",
          "type": "uint256"
        }
      ],
      "name": "LeafAdded",
      "type": "event",
      "signature": "0x039fe56c88c7423b368b110113d8483a6b9ee8fc3d8155d1ea6266f8ed3ef195"
    },
    {
      "constant": true,
      "inputs": [],
      "name": "getRoot",
      "outputs": [
        {
          "name": "",
          "type": "uint256"
        }
      ],
      "payable": false,
      "stateMutability": "view",
      "type": "function",
      "signature": "0x5ca1e165"
    },
    {
      "constant": false,
      "inputs": [
        {
          "name": "leaf",
          "type": "uint256"
        },
        {
          "name": "fundingWallet",
          "type": "address"
        }
      ],
      "name": "commit",
      "outputs": [],
      "payable": false,
      "stateMutability": "nonpayable",
      "type": "function",
      "signature": "0x0d64b071"
    },
    {
      "constant": true,
      "inputs": [
        {
          "name": "nullifier_secret",
          "type": "uint256"
        },
        {
          "name": "wallet_address",
          "type": "address"
        }
      ],
      "name": "makeLeafHash",
      "outputs": [
        {
          "name": "",
          "type": "uint256"
        }
      ],
      "payable": false,
      "stateMutability": "pure",
      "type": "function",
      "signature": "0x03c5c65e"
    },
    {
      "constant": true,
      "inputs": [
        {
          "name": "nullifier_secret",
          "type": "uint256"
        }
      ],
      "name": "makeNullifierHash",
      "outputs": [
        {
          "name": "",
          "type": "uint256"
        }
      ],
      "payable": false,
      "stateMutability": "pure",
      "type": "function",
      "signature": "0xc938f018"
    },
    {
      "constant": true,
      "inputs": [
        {
          "name": "leafIndex",
          "type": "uint256"
        }
      ],
      "name": "getMerklePath",
      "outputs": [
        {
          "name": "out_path",
          "type": "uint256[29]"
        }
      ],
      "payable": false,
      "stateMutability": "view",
      "type": "function",
      "signature": "0x6e4d6517"
    },
    {
      "constant": true,
      "inputs": [
        {
          "name": "nullifier",
          "type": "uint256"
        }
      ],
      "name": "isSpent",
      "outputs": [
        {
          "name": "",
          "type": "bool"
        }
      ],
      "payable": false,
      "stateMutability": "view",
      "type": "function",
      "signature": "0x5a129efe"
    },
    {
      "constant": true,
      "inputs": [
        {
          "name": "in_root",
          "type": "uint256"
        },
        {
          "name": "in_wallet_address",
          "type": "address"
        },
        {
          "name": "in_nullifier",
          "type": "uint256"
        },
        {
          "name": "proof",
          "type": "uint256[8]"
        }
      ],
      "name": "verifyProof",
      "outputs": [
        {
          "name": "",
          "type": "bool"
        }
      ],
      "payable": false,
      "stateMutability": "view",
      "type": "function",
      "signature": "0x74b9886e"
    },
    {
      "constant": false,
      "inputs": [
        {
          "name": "in_withdraw_address",
          "type": "address"
        },
        {
          "name": "in_nullifier",
          "type": "uint256"
        },
        {
          "name": "proof",
          "type": "uint256[8]"
        }
      ],
      "name": "withdraw",
      "outputs": [],
      "payable": false,
      "stateMutability": "nonpayable",
      "type": "function",
      "signature": "0x22a6fef1"
    },
    {
      "constant": true,
      "inputs": [],
      "name": "treeDepth",
      "outputs": [
        {
          "name": "",
          "type": "uint256"
        }
      ],
      "payable": false,
      "stateMutability": "pure",
      "type": "function",
      "signature": "0x16a56c41"
    }
  ],
  "bytecode": "0x60806040523480156200001157600080fd5b50604051620018bd380380620018bd83398101806040526101e08110156200003857600080fd5b810190809190826101c00180516401000000008111156200005857600080fd5b820160208101848111156200006c57600080fd5b81518560208202830111640100000000821117156200008a57600080fd5b50909350620000a3925060009150849050600e620000c2565b508051620000b990600e90602084019062000105565b50505062000162565b82600e8101928215620000f3579160200282015b82811115620000f3578251825591602001919060010190620000d6565b506200010192915062000142565b5090565b828054828255906000526020600020908101928215620000f35791602002820182811115620000f3578251825591602001919060010190620000d6565b6200015f91905b8082111562000101576000815560010162000149565b90565b61174b80620001726000396000f3fe6080604052600436106100b95763ffffffff7c010000000000000000000000000000000000000000000000000000000060003504166303c5c65e81146101e15780630d64b0711461022c57806316a56c411461026757806322a6fef11461027c5780635a129efe146102ef5780635ca1e1651461032d5780636e4d65171461034257806374b9886e146103a5578063c938f0181461041e578063d178917614610448578063d21e82ab1461045d578063eb3349b914610487575b34662386f26fc1000014610117576040805160e560020a62461bcd02815260206004820152601560248201527f696e76616c6964206465706f7369742076616c75650000000000000000000000604482015290519081900360640190fd5b3360009081526010602052604081205490811161017e576040805160e560020a62461bcd02815260206004820152601d60248201527f636f6d6d69746d656e74206d7573742062652073656e74206669727374000000604482015290519081900360640190fd5b3360009081526010602052604081208190556101a160118363ffffffff6104ba16565b604080518581526020810183905281519294507f039fe56c88c7423b368b110113d8483a6b9ee8fc3d8155d1ea6266f8ed3ef19593508290030190a15050005b3480156101ed57600080fd5b5061021a6004803603604081101561020457600080fd5b5080359060200135600160a060020a0316610532565b60408051918252519081900360200190f35b34801561023857600080fd5b506102656004803603604081101561024f57600080fd5b5080359060200135600160a060020a0316610617565b005b34801561027357600080fd5b5061021a61066b565b34801561028857600080fd5b5061026560048036036101408110156102a057600080fd5b604080516101008181018352600160a060020a038535169460208101359481019390926101408401929091840190600890839083908082843760009201919091525091945061067a9350505050565b3480156102fb57600080fd5b506103196004803603602081101561031257600080fd5b503561079e565b604080519115158252519081900360200190f35b34801561033957600080fd5b5061021a6107b3565b34801561034e57600080fd5b5061036c6004803603602081101561036557600080fd5b50356107bf565b60405180826103a080838360005b8381101561039257818101518382015260200161037a565b5050505090500191505060405180910390f35b3480156103b157600080fd5b5061031960048036036101608110156103c957600080fd5b604080516101008181018352843594600160a060020a03602082013516949381013593810192909161016083019190606084019060089083908390808284376000920191909152509194506107de9350505050565b34801561042a57600080fd5b5061021a6004803603602081101561044157600080fd5b50356108f2565b34801561045457600080fd5b5061021a61092c565b34801561046957600080fd5b506103196004803603602081101561048057600080fd5b5035610937565b34801561049357600080fd5b5061021a600480360360208110156104aa57600080fd5b5035600160a060020a031661094c565b6000808215156104c957600080fd5b6104d1611642565b6104da8161095e565b6104e2611662565b6104eb81610adf565b85549250631fffffff83141561050057600080fd5b8460018701846320000000811061051357fe5b0155610520868383610f40565b60018401909655509394909350915050565b60008060028484600160a060020a031660405160200180838152602001828152602001925050506040516020818303038152906040526040518082805190602001908083835b602083106105975780518252601f199092019160209182019101610578565b51815160209384036101000a60001901801990921691161790526040519190930194509192505080830381855afa1580156105d6573d6000803e3d6000fd5b5050506040513d60208110156105eb57600080fd5b50517f0fffffffffffffffffffffffffffffffffffffffffffffffffffffffffffffff16949350505050565b600160a060020a038116600081815260106020908152604091829020859055815185815291517f765b674bff93b21bfb5ffcffac5d739861ed3aea348696049536c96d10e7b37e9281900390910190a25050565b600061067561108e565b905090565b6000828152600f602052604090205460ff16156106e1576040805160e560020a62461bcd02815260206004820152600e60248201527f4e756c6c69666965722075736564000000000000000000000000000000000000604482015290519081900360640190fd5b6106f46106ec6107b3565b8484846107de565b151561074a576040805160e560020a62461bcd02815260206004820152601960248201527f50726f6f6620766572696669636174696f6e206661696c656400000000000000604482015290519081900360640190fd5b6000828152600f6020526040808220805460ff1916600117905551600160a060020a0385169190662386f26fc100009082818181858883f19350505050158015610798573d6000803e3d6000fd5b50505050565b6000908152600f602052604090205460ff1690565b60006106756011611093565b6107c7611662565b6107d860118363ffffffff61109e16565b92915050565b60408051600380825260808201909252600091606091906020820183803883390190505090508581600081518110151561081457fe5b602090810290910101528051600160a060020a038616908290600190811061083857fe5b60209081029091010152805184908290600290811061085357fe5b6020908102919091010152604080516101c08101918290526108e891600090600e9082845b815481526020019060010190808311610878575050505050600e8054806020026020016040519081016040528092919081815260200182805480156108dc57602002820191906000526020600020905b8154815260200190600101908083116108c8575b50505050508584611115565b9695505050505050565b60006108fc611642565b6109058161095e565b61092560408051908101604052808581526020018581525060008361138e565b9392505050565b662386f26fc1000081565b600f6020526000908152604090205460ff1681565b60106020526000908152604090205481565b7f190726c6b863309f7064fdae4b63627c7e48544357edb232f49dc2c2a52fee7681527f11a5284262feba32c9949dc983fd8dac3b59c821869691ee55ca874589baa7f860208201527f0fde0c1277266957c0a815037b2d1a42339c2beb85f7fb2987b1e52b4240423360408201527f11e7d25d4d1db3ba659749da46fb1e1f87b590b1715c7473645c85342fa6d9e760608201527f0248730ebed4c35a125a6b6c4783e938a2469f04e928629e90204f1d641a80c360808201527f26d25e90f09dc71ce876d1352d9d202626e2a014ace918746f8d2ae732eefe7160a08201527f2c73890cd20b5c9c6f25f5d4362827a930d61799375b10fc32f6986c65830a9d60c08201527f15b681cb1b3f3dfd466470a116409bef4a7d00a45b8a6b0d9917390634345ee360e08201527f1e0e0c864a45353d615c692bf04c2f684f58868f2b4349ba59d8b410ed5185056101008201527f289c53edf494b1a73af88bf95f8f5459b10464dcc946a8910df074867be100e08160095b602002015250565b7e54b679342dc72db7dada5f1e059c89cdd0e248dfd48b93fbd819469fdddab281527f15616c4d9255be862e74568bec02555a2ec44aca0c35b6654b492d764dbaa4de60208201527f288005cad3274b9dbabda48cabd68247fd9dbfeaaf44befae372d3aa29a2222f60408201527f0e95e36069b5a4ec39d0d317ae9b3659cb7259fa6977fd4d81fae34d91885e7b60608201527f3005a039bb02066ec8f3bbce1259cfbc68c84bc5adbf353a3338c6ef1495c66660808201527f16d6b88b43188dae6501f224a9fa48d14fc1c67ce846dabfb24a94a6f23aa31260a08201527f269db736b9c3dcb23f263ed57476a620dd607eb4f08c82bc5a40baf11c2e2b9360c08201527f29be46ef2cd66613f7bece37644ec4e5cd57ae30c3c1028312fa3a1d5000521260e08201527f2fb65d8cfc2d7b52e0dd83a719f7ee81cedd92f748bdfebeddcda7ec18e2ab266101008201527f1b3ac839413221cfb6955b7822ef98fa4dfb42b0221044ace6c6272a3956a7b66101208201527f29cc155784315664174105985ee453015a0a8c5d2dd4593a8300463b52fb6ade6101408201527f1c575b8e067a3b91febbe1dda3737835804245e9858c47ae26fff4189a4111f96101608201527f123af492faf15272031d5e6625172effdfdcf365098567bdcba69d4be38a1a526101808201527f257b17ef869450bf306b6cea7449d42b6838fea192f60eefbf5927765d5bf7516101a08201527f2ac5f23fa9f80eb16660ed46597a663beae42cb4e0fe52f1b6eec9439e90b5de6101c08201527f20073c3de8ab30d68500a004a4e65c6ab4790d2490485cc6ca556409edab4f636101e08201527f1899efd956f09cbc6957ecd6439e60bef70fed8c2f79a40dba1fb6fdac6038916102008201527f1b0318839e1c11019a80a60d706e95734bfbf19847d96c62a9edd3e40eda62336102208201527f0198a6d7d2116040005fc9d8e52c1f8aa716a2a89fa928e80adab5c9e67c8a006102408201527f216b23e7665eec6f9281a499a500becdd087c180b0530e9e2612d0b2c666b48f6102608201527f196a11f69da3f88d41f2866d3e33e5222ceb2ac37495e863a8c7cc4ad61874906102808201527f254af2fb95e5c3c653ca1924988e6bd51f551ccec30d2bb63ca1b474bb942a126102a08201527f042a5f4566c16e6a9fb2888035238960f42549779d294db188d0f7b0027acace6102c08201527f205fd580902c32fc11dc166960fe4d684eba95a1668d491173e8e7802f3b125b6102e08201527f04464227c9008591d174db5aadbf5c0e975a96c9b4870fd116dd6963ca5b8e5e6103008201527f101bf6e8dfa32916a68f5387b592d81c7e2dd863f1a18436f5fd7b002121a8c36103208201527f256f437c488ab1f6a7c4822d10200b0fcb40db6119f392e96af74923e063e67a6103408201527f249e0fc1984d1ffe2a0303977102ccf091183d356ab31b22a08ef4c1e353d2e06103608201527f0d591031e187db8db2cd240e9eb6ee7ada1207535795abb69f8a7914a7e35fbc81601c610ad7565b82546000908180805b601d8110156110795760028404600185161515610fc9576001890182601e8110610f6f57fe5b6320000000020185632000000081101515610f8657fe5b01549350610fc2826001808801908c0182601e8110610fa157fe5b6320000000020188600101632000000081101515610fbb57fe5b0154611404565b9250611028565b610ffb82600019870160018c0182601e8110610fe157fe5b6320000000020160018903632000000081101515610fbb57fe5b93506001890182601e811061100c57fe5b632000000002018563200000008110151561102357fe5b015492505b61104484848a8a86601d811061103a57fe5b602002015161151a565b6001808b01908401601e811061105657fe5b632000000002018263200000008110151561106d57fe5b01559350600101610f49565b5050506403a000000190940154949350505050565b601d90565b6403a0000001015490565b6110a6611662565b60005b601d81101561110e576002830615156110e0576110ca848285600101611544565b8282601d81106110d657fe5b6020020152611100565b6110ee848260018603611544565b8282601d81106110fa57fe5b60200201525b6002830492506001016110a9565b5092915050565b6000815160016002865181151561112857fe5b04031461113457600080fd5b61113c611682565b6111446116a1565b855160009060029088908390811061115857fe5b6020908102919091010151835287518890600190811061117457fe5b60209081029091010151836001602002015260005b865181101561123657885160018301928a9181106111a357fe5b60209081029190910101518552885160018301928a9181106111c157fe5b60209081029091010151856001602002015286518790829081106111e157fe5b60209081029091010151856002602002015260606040850160808760076107d05a03fa925082151561121257600080fd5b60608460c08660066107d05a03fa925082151561122e57600080fd5b600101611189565b5061123f6116c0565b6040805161030081018252895181526020808b01519082015289820151918101919091526060808a0151908201526080808a01519082015260a0808a0151908201528a5160c082015260e0810161129d8c60015b6020020151611579565b81526040808d015160208301526060808e0151918301919091526080808e01519183019190915260a0808e01519183019190915286519082015260c0016112e5866001611293565b815260c0808d0151602083015260e08d015160408301526101008d015160608301526101208d015160808301528a81015160a0830152016113278a6007611293565b81526101408c015160208201526101608c015160408201526101808c015160608201526101a08c015160809091015290506113606116e0565b6020816103008460086107d05a03fa935083151561137d57600080fd5b5115159a9950505050505050505050565b600080835b60028210156113fb576113b78683600281106113ab57fe5b602002015182866115a3565b90506000805160206117008339815191528683600281106113d457fe5b60200201518408925060008051602061170083398151915281840892505060010181611393565b50509392505050565b600081151561110e57611415611602565b604080517e0100000000000000000000000000000000000000000000000000000000000061ffff881602602080830191909152620100007dffffffffffffffffffffffffffffffffffffffffffffffffffffffffffff8816026022830152825180830382018152918301928390528151600293918291908401908083835b602083106114b25780518252601f199092019160209182019101611493565b51815160209384036101000a60001901801990921691161790526040519190930194509192505080830381855afa1580156114f1573d6000803e3d6000fd5b5050506040513d602081101561150657600080fd5b505181151561151157fe5b06949350505050565b600061153b604080519081016040528087815260200186815250838561138e565b95945050505050565b600061157183836001870182601e811061155a57fe5b6320000000020185632000000081101515610fbb57fe5b949350505050565b7f30644e72e131a029b85045b68181585d97816a916871ca8d3c208c16d87cfd4790819006900390565b6000806115b285856000611614565b9450600090505b600a8110156115e7576115dd85858584600a81106115d357fe5b6020020151611614565b94506001016115b9565b60008051602061170083398151915284860895945050505050565b60008051602061170083398151915290565b6000600080516020611700833981519152808482858808088181820982828483840909979650505050505050565b61014060405190810160405280600a906020820280388339509192915050565b6103a060405190810160405280601d906020820280388339509192915050565b6060604051908101604052806003906020820280388339509192915050565b6080604051908101604052806004906020820280388339509192915050565b610300604051908101604052806018906020820280388339509192915050565b602060405190810160405280600190602082028038833950919291505056fe30644e72e131a029b85045b68181585d2833e84879b9709143e1f593f0000001a165627a7a72305820f9491b64dfef943bedc53c658f28f167b75ba9913c095845fbd2d939920ae0f20029",
  "source": "pragma solidity ^0.5;\n\nimport \"./lib/Verifier.sol\";\nimport \"./lib/MerkleTree.sol\";\nimport \"./lib/LongsightL.sol\";\n\n\ncontract Mixer\n{\n    using MerkleTree for MerkleTree.Data;\n\n    uint constant public AMOUNT = 0.01 ether;\n\n    uint256[14] vk;\n    uint256[] gammaABC;\n\n    mapping (uint256 => bool) public nullifiers;\n    mapping (address => uint256) public pendingDeposits;\n\n    MerkleTree.Data internal tree;\n\n    event CommitmentAdded(address indexed _fundingWallet, uint256 _leaf);\n    event LeafAdded(uint256 _leaf, uint256 _leafIndex);\n\n    constructor(uint256[14] memory in_vk, uint256[] memory in_gammaABC)\n        public\n    {\n        vk = in_vk;\n        gammaABC = in_gammaABC;\n    }\n\n    function getRoot()\n        public \n        view \n        returns (uint256)\n    {\n        return tree.getRoot();\n    }\n\n    /**\n    * Save a commitment (leaf) that needs to be funded later on\n    */\n    function commit(uint256 leaf, address fundingWallet)\n        public\n    {\n        pendingDeposits[fundingWallet] = leaf;\n        emit CommitmentAdded(fundingWallet, leaf);\n    }\n\n    /*\n    * Used by the funding wallet to fund a previously saved commitment\n    */\n    function () external payable {\n        require(msg.value == AMOUNT, \"invalid deposit value\");\n        uint256 leaf = pendingDeposits[msg.sender];\n        require(leaf > 0, \"commitment must be sent first\");\n        delete pendingDeposits[msg.sender];\n        (, uint256 leafIndex) = tree.insert(leaf);\n        emit LeafAdded(leaf, leafIndex);\n    }\n\n    // should not be used in production otherwise nullifier_secret would be shared with node!\n    function makeLeafHash(uint256 nullifier_secret, address wallet_address)\n        public \n        pure \n        returns (uint256)\n    {\n        // uint256[10] memory round_constants;\n        // LongsightL.constantsL12p5(round_constants);\n\n        // return LongsightL.longsightL12p5_MP([nullifier_secret, uint256(wallet_address)], 0, round_constants);\n        bytes32 digest = sha256(abi.encodePacked(nullifier_secret, uint256(wallet_address)));\n        uint256 mask = uint256(-1) >> 4; // clear the first 4 bits to make sure we stay within the prime field\n        return uint256(digest) & mask;\n\n    }\n\n    // should not be used in production otherwise nullifier_secret would be shared with node!\n    function makeNullifierHash(uint256 nullifier_secret)\n        public \n        pure \n        returns (uint256)\n    {\n        uint256[10] memory round_constants;\n        LongsightL.constantsL12p5(round_constants);\n\n        return LongsightL.longsightL12p5_MP([nullifier_secret, nullifier_secret], 0, round_constants);\n    }\n\n\n    function getMerklePath(uint256 leafIndex)\n        public \n        view \n        returns (uint256[29] memory out_path)\n    {\n        out_path = tree.getMerkleProof(leafIndex);\n    }\n\n\n    function isSpent(uint256 nullifier)\n        public \n        view \n        returns (bool)\n    {\n        return nullifiers[nullifier];\n    }\n\n\n    function verifyProof(uint256 in_root, address in_wallet_address, uint256 in_nullifier, uint256[8] memory proof)\n        public \n        view \n        returns (bool)\n    {\n        uint256[] memory snark_input = new uint256[](3);\n        snark_input[0] = in_root;\n        snark_input[1] = uint256(in_wallet_address);\n        snark_input[2] = in_nullifier;\n\n        return Verifier.verify(vk, gammaABC, proof, snark_input);\n    }\n\n    \n    function withdraw(\n        address payable in_withdraw_address,\n        uint256 in_nullifier,\n        uint256[8] memory proof\n    )\n        public\n    {\n        require(!nullifiers[in_nullifier], \"Nullifier used\");\n        require(verifyProof(getRoot(), in_withdraw_address, in_nullifier, proof), \"Proof verification failed\");\n        // bool b = (verifyProof(getRoot(), in_withdraw_address, in_nullifier, proof));//, \"Proof verification failed\");\n\n        nullifiers[in_nullifier] = true;\n\n        in_withdraw_address.transfer(AMOUNT);\n    }\n\n    function treeDepth() external pure returns (uint256) {\n        return MerkleTree.treeDepth();\n    }\n}\n",
  "sourcePath": "/Users/ovdbigge/libsnark/apt/solidity/contracts/Mixer.sol",
  "compiler": {
    "name": "solc",
    "version": "0.5.0+commit.1d4f565a.Emscripten.clang"
  },
  "schemaVersion": "3.0.1",
  "updatedAt": "2019-02-18T13:17:32.961Z",
  "devdoc": {
    "methods": {}
  },
  "userdoc": {
    "methods": {
      "commit(uint256,address)": {
        "notice": "Save a commitment (leaf) that needs to be funded later on"
      }
    }
  }
}